{
  "_format": "hh-sol-artifact-1",
  "contractName": "SynthwavePunk",
  "sourceName": "contracts/SynthwavePunk.sol",
  "abi": [
    {
      "inputs": [
        {
          "internalType": "uint256",
          "name": "_maxTokens",
          "type": "uint256"
        },
        {
          "internalType": "address",
          "name": "_proofOfVisitAddress",
          "type": "address"
        }
      ],
      "stateMutability": "nonpayable",
      "type": "constructor"
    },
    {
      "anonymous": false,
      "inputs": [
        {
          "indexed": true,
          "internalType": "address",
          "name": "owner",
          "type": "address"
        },
        {
          "indexed": true,
          "internalType": "address",
          "name": "approved",
          "type": "address"
        },
        {
          "indexed": true,
          "internalType": "uint256",
          "name": "tokenId",
          "type": "uint256"
        }
      ],
      "name": "Approval",
      "type": "event"
    },
    {
      "anonymous": false,
      "inputs": [
        {
          "indexed": true,
          "internalType": "address",
          "name": "owner",
          "type": "address"
        },
        {
          "indexed": true,
          "internalType": "address",
          "name": "operator",
          "type": "address"
        },
        {
          "indexed": false,
          "internalType": "bool",
          "name": "approved",
          "type": "bool"
        }
      ],
      "name": "ApprovalForAll",
      "type": "event"
    },
    {
      "anonymous": false,
      "inputs": [
        {
          "indexed": true,
          "internalType": "address",
          "name": "previousOwner",
          "type": "address"
        },
        {
          "indexed": true,
          "internalType": "address",
          "name": "newOwner",
          "type": "address"
        }
      ],
      "name": "OwnershipTransferred",
      "type": "event"
    },
    {
      "anonymous": false,
      "inputs": [
        {
          "indexed": true,
          "internalType": "address",
          "name": "from",
          "type": "address"
        },
        {
          "indexed": true,
          "internalType": "address",
          "name": "to",
          "type": "address"
        },
        {
          "indexed": true,
          "internalType": "uint256",
          "name": "tokenId",
          "type": "uint256"
        }
      ],
      "name": "Transfer",
      "type": "event"
    },
    {
      "inputs": [],
      "name": "_totalSupply",
      "outputs": [
        {
          "internalType": "uint256",
          "name": "",
          "type": "uint256"
        }
      ],
      "stateMutability": "view",
      "type": "function"
    },
    {
      "inputs": [
        {
          "internalType": "address",
          "name": "to",
          "type": "address"
        },
        {
          "internalType": "uint256",
          "name": "tokenId",
          "type": "uint256"
        }
      ],
      "name": "approve",
      "outputs": [],
      "stateMutability": "nonpayable",
      "type": "function"
    },
    {
      "inputs": [
        {
          "internalType": "address",
          "name": "owner",
          "type": "address"
        }
      ],
      "name": "balanceOf",
      "outputs": [
        {
          "internalType": "uint256",
          "name": "",
          "type": "uint256"
        }
      ],
      "stateMutability": "view",
      "type": "function"
    },
    {
      "inputs": [
        {
          "internalType": "uint256",
          "name": "tokenId",
          "type": "uint256"
        }
      ],
      "name": "getApproved",
      "outputs": [
        {
          "internalType": "address",
          "name": "",
          "type": "address"
        }
      ],
      "stateMutability": "view",
      "type": "function"
    },
    {
      "inputs": [
        {
          "internalType": "address",
          "name": "",
          "type": "address"
        }
      ],
      "name": "hasClaimed",
      "outputs": [
        {
          "internalType": "bool",
          "name": "",
          "type": "bool"
        }
      ],
      "stateMutability": "view",
      "type": "function"
    },
    {
      "inputs": [
        {
          "internalType": "address",
          "name": "owner",
          "type": "address"
        },
        {
          "internalType": "address",
          "name": "operator",
          "type": "address"
        }
      ],
      "name": "isApprovedForAll",
      "outputs": [
        {
          "internalType": "bool",
          "name": "",
          "type": "bool"
        }
      ],
      "stateMutability": "view",
      "type": "function"
    },
    {
      "inputs": [],
      "name": "name",
      "outputs": [
        {
          "internalType": "string",
          "name": "",
          "type": "string"
        }
      ],
      "stateMutability": "view",
      "type": "function"
    },
    {
      "inputs": [],
      "name": "owner",
      "outputs": [
        {
          "internalType": "address",
          "name": "",
          "type": "address"
        }
      ],
      "stateMutability": "view",
      "type": "function"
    },
    {
      "inputs": [
        {
          "internalType": "uint256",
          "name": "tokenId",
          "type": "uint256"
        }
      ],
      "name": "ownerOf",
      "outputs": [
        {
          "internalType": "address",
          "name": "",
          "type": "address"
        }
      ],
      "stateMutability": "view",
      "type": "function"
    },
    {
      "inputs": [],
      "name": "proofOfVisitAddress",
      "outputs": [
        {
          "internalType": "address",
          "name": "",
          "type": "address"
        }
      ],
      "stateMutability": "view",
      "type": "function"
    },
    {
      "inputs": [],
      "name": "renounceOwnership",
      "outputs": [],
      "stateMutability": "nonpayable",
      "type": "function"
    },
    {
      "inputs": [
        {
          "internalType": "address",
          "name": "to",
          "type": "address"
        }
      ],
      "name": "safeMint",
      "outputs": [],
      "stateMutability": "nonpayable",
      "type": "function"
    },
    {
      "inputs": [
        {
          "internalType": "address",
          "name": "from",
          "type": "address"
        },
        {
          "internalType": "address",
          "name": "to",
          "type": "address"
        },
        {
          "internalType": "uint256",
          "name": "tokenId",
          "type": "uint256"
        }
      ],
      "name": "safeTransferFrom",
      "outputs": [],
      "stateMutability": "nonpayable",
      "type": "function"
    },
    {
      "inputs": [
        {
          "internalType": "address",
          "name": "from",
          "type": "address"
        },
        {
          "internalType": "address",
          "name": "to",
          "type": "address"
        },
        {
          "internalType": "uint256",
          "name": "tokenId",
          "type": "uint256"
        },
        {
          "internalType": "bytes",
          "name": "data",
          "type": "bytes"
        }
      ],
      "name": "safeTransferFrom",
      "outputs": [],
      "stateMutability": "nonpayable",
      "type": "function"
    },
    {
      "inputs": [
        {
          "internalType": "address",
          "name": "operator",
          "type": "address"
        },
        {
          "internalType": "bool",
          "name": "approved",
          "type": "bool"
        }
      ],
      "name": "setApprovalForAll",
      "outputs": [],
      "stateMutability": "nonpayable",
      "type": "function"
    },
    {
      "inputs": [
        {
          "internalType": "bytes4",
          "name": "interfaceId",
          "type": "bytes4"
        }
      ],
      "name": "supportsInterface",
      "outputs": [
        {
          "internalType": "bool",
          "name": "",
          "type": "bool"
        }
      ],
      "stateMutability": "view",
      "type": "function"
    },
    {
      "inputs": [],
      "name": "symbol",
      "outputs": [
        {
          "internalType": "string",
          "name": "",
          "type": "string"
        }
      ],
      "stateMutability": "view",
      "type": "function"
    },
    {
      "inputs": [
        {
          "internalType": "uint256",
          "name": "tokenId",
          "type": "uint256"
        }
      ],
      "name": "tokenURI",
      "outputs": [
        {
          "internalType": "string",
          "name": "",
          "type": "string"
        }
      ],
      "stateMutability": "view",
      "type": "function"
    },
    {
      "inputs": [],
      "name": "totalMinted",
      "outputs": [
        {
          "internalType": "uint256",
          "name": "",
          "type": "uint256"
        }
      ],
      "stateMutability": "view",
      "type": "function"
    },
    {
      "inputs": [],
      "name": "totalSupply",
      "outputs": [
        {
          "internalType": "uint256",
          "name": "",
          "type": "uint256"
        }
      ],
      "stateMutability": "view",
      "type": "function"
    },
    {
      "inputs": [
        {
          "internalType": "address",
          "name": "from",
          "type": "address"
        },
        {
          "internalType": "address",
          "name": "to",
          "type": "address"
        },
        {
          "internalType": "uint256",
          "name": "tokenId",
          "type": "uint256"
        }
      ],
      "name": "transferFrom",
      "outputs": [],
      "stateMutability": "nonpayable",
      "type": "function"
    },
    {
      "inputs": [
        {
          "internalType": "address",
          "name": "newOwner",
          "type": "address"
        }
      ],
      "name": "transferOwnership",
      "outputs": [],
      "stateMutability": "nonpayable",
      "type": "function"
    }
  ],
  "bytecode": "0x60806040523480156200001157600080fd5b5060405162003415380380620034158339818101604052810190620000379190620002ac565b6040518060400160405280600d81526020017f53796e74687761766550756e6b000000000000000000000000000000000000008152506040518060400160405280600381526020017fe29c8a00000000000000000000000000000000000000000000000000000000008152508160009081620000b4919062000563565b508060019081620000c6919062000563565b505050620000e9620000dd6200013960201b60201c565b6200014160201b60201c565b8160088190555080600960006101000a81548173ffffffffffffffffffffffffffffffffffffffff021916908373ffffffffffffffffffffffffffffffffffffffff16021790555050506200064a565b600033905090565b6000600660009054906101000a900473ffffffffffffffffffffffffffffffffffffffff16905081600660006101000a81548173ffffffffffffffffffffffffffffffffffffffff021916908373ffffffffffffffffffffffffffffffffffffffff1602179055508173ffffffffffffffffffffffffffffffffffffffff168173ffffffffffffffffffffffffffffffffffffffff167f8be0079c531659141344cd1fd0a4f28419497f9722a3daafe3b4186f6b6457e060405160405180910390a35050565b600080fd5b6000819050919050565b62000221816200020c565b81146200022d57600080fd5b50565b600081519050620002418162000216565b92915050565b600073ffffffffffffffffffffffffffffffffffffffff82169050919050565b6000620002748262000247565b9050919050565b620002868162000267565b81146200029257600080fd5b50565b600081519050620002a6816200027b565b92915050565b60008060408385031215620002c657620002c562000207565b5b6000620002d68582860162000230565b9250506020620002e98582860162000295565b9150509250929050565b600081519050919050565b7f4e487b7100000000000000000000000000000000000000000000000000000000600052604160045260246000fd5b7f4e487b7100000000000000000000000000000000000000000000000000000000600052602260045260246000fd5b600060028204905060018216806200037557607f821691505b6020821081036200038b576200038a6200032d565b5b50919050565b60008190508160005260206000209050919050565b60006020601f8301049050919050565b600082821b905092915050565b600060088302620003f57fffffffffffffffffffffffffffffffffffffffffffffffffffffffffffffffff82620003b6565b620004018683620003b6565b95508019841693508086168417925050509392505050565b6000819050919050565b6000620004446200043e62000438846200020c565b62000419565b6200020c565b9050919050565b6000819050919050565b620004608362000423565b620004786200046f826200044b565b848454620003c3565b825550505050565b600090565b6200048f62000480565b6200049c81848462000455565b505050565b5b81811015620004c457620004b860008262000485565b600181019050620004a2565b5050565b601f8211156200051357620004dd8162000391565b620004e884620003a6565b81016020851015620004f8578190505b620005106200050785620003a6565b830182620004a1565b50505b505050565b600082821c905092915050565b6000620005386000198460080262000518565b1980831691505092915050565b600062000553838362000525565b9150826002028217905092915050565b6200056e82620002f3565b67ffffffffffffffff8111156200058a5762000589620002fe565b5b6200059682546200035c565b620005a3828285620004c8565b600060209050601f831160018114620005db5760008415620005c6578287015190505b620005d2858262000545565b86555062000642565b601f198416620005eb8662000391565b60005b828110156200061557848901518255600182019150602085019450602081019050620005ee565b8683101562000635578489015162000631601f89168262000525565b8355505b6001600288020188555050505b505050505050565b612dbb806200065a6000396000f3fe608060405234801561001057600080fd5b50600436106101425760003560e01c806370a08231116100b8578063a22cb4651161007c578063a22cb46514610365578063a2309ff814610381578063b88d4fde1461039f578063c87b56dd146103bb578063e985e9c5146103eb578063f2fde38b1461041b57610142565b806370a08231146102bf578063715018a6146102ef57806373b2e80e146102f95780638da5cb5b1461032957806395d89b411461034757610142565b806323484ebd1161010a57806323484ebd146101ff57806323b872dd1461021d5780633eaaf86b1461023957806340d097c31461025757806342842e0e146102735780636352211e1461028f57610142565b806301ffc9a71461014757806306fdde0314610177578063081812fc14610195578063095ea7b3146101c557806318160ddd146101e1575b600080fd5b610161600480360381019061015c9190611c59565b610437565b60405161016e9190611ca1565b60405180910390f35b61017f610519565b60405161018c9190611d4c565b60405180910390f35b6101af60048036038101906101aa9190611da4565b6105ab565b6040516101bc9190611e12565b60405180910390f35b6101df60048036038101906101da9190611e59565b6105f1565b005b6101e9610708565b6040516101f69190611ea8565b60405180910390f35b610207610712565b6040516102149190611e12565b60405180910390f35b61023760048036038101906102329190611ec3565b610738565b005b610241610798565b60405161024e9190611ea8565b60405180910390f35b610271600480360381019061026c9190611f16565b61079e565b005b61028d60048036038101906102889190611ec3565b6109da565b005b6102a960048036038101906102a49190611da4565b6109fa565b6040516102b69190611e12565b60405180910390f35b6102d960048036038101906102d49190611f16565b610aab565b6040516102e69190611ea8565b60405180910390f35b6102f7610b62565b005b610313600480360381019061030e9190611f16565b610b76565b6040516103209190611ca1565b60405180910390f35b610331610b96565b60405161033e9190611e12565b60405180910390f35b61034f610bc0565b60405161035c9190611d4c565b60405180910390f35b61037f600480360381019061037a9190611f6f565b610c52565b005b610389610c68565b6040516103969190611ea8565b60405180910390f35b6103b960048036038101906103b491906120e4565b610c79565b005b6103d560048036038101906103d09190611da4565b610cdb565b6040516103e29190611d4c565b60405180910390f35b61040560048036038101906104009190612167565b610d43565b6040516104129190611ca1565b60405180910390f35b61043560048036038101906104309190611f16565b610dd7565b005b60007f80ac58cd000000000000000000000000000000000000000000000000000000007bffffffffffffffffffffffffffffffffffffffffffffffffffffffff1916827bffffffffffffffffffffffffffffffffffffffffffffffffffffffff1916148061050257507f5b5e139f000000000000000000000000000000000000000000000000000000007bffffffffffffffffffffffffffffffffffffffffffffffffffffffff1916827bffffffffffffffffffffffffffffffffffffffffffffffffffffffff1916145b80610512575061051182610e5a565b5b9050919050565b606060008054610528906121d6565b80601f0160208091040260200160405190810160405280929190818152602001828054610554906121d6565b80156105a15780601f10610576576101008083540402835291602001916105a1565b820191906000526020600020905b81548152906001019060200180831161058457829003601f168201915b5050505050905090565b60006105b682610ec4565b6004600083815260200190815260200160002060009054906101000a900473ffffffffffffffffffffffffffffffffffffffff169050919050565b60006105fc826109fa565b90508073ffffffffffffffffffffffffffffffffffffffff168373ffffffffffffffffffffffffffffffffffffffff160361066c576040517f08c379a000000000000000000000000000000000000000000000000000000000815260040161066390612279565b60405180910390fd5b8073ffffffffffffffffffffffffffffffffffffffff1661068b610f0f565b73ffffffffffffffffffffffffffffffffffffffff1614806106ba57506106b9816106b4610f0f565b610d43565b5b6106f9576040517f08c379a00000000000000000000000000000000000000000000000000000000081526004016106f09061230b565b60405180910390fd5b6107038383610f17565b505050565b6000600854905090565b600960009054906101000a900473ffffffffffffffffffffffffffffffffffffffff1681565b610749610743610f0f565b82610fd0565b610788576040517f08c379a000000000000000000000000000000000000000000000000000000000815260040161077f9061239d565b60405180910390fd5b610793838383611065565b505050565b60085481565b60011515600a60003373ffffffffffffffffffffffffffffffffffffffff1673ffffffffffffffffffffffffffffffffffffffff16815260200190815260200160002060009054906101000a900460ff16151503610831576040517f08c379a000000000000000000000000000000000000000000000000000000000815260040161082890612409565b60405180910390fd5b60085461083e60076112cb565b1061087e576040517f08c379a000000000000000000000000000000000000000000000000000000000815260040161087590612475565b60405180910390fd5b6000600960009054906101000a900473ffffffffffffffffffffffffffffffffffffffff1673ffffffffffffffffffffffffffffffffffffffff166370a08231336040518263ffffffff1660e01b81526004016108db9190611e12565b602060405180830381865afa1580156108f8573d6000803e3d6000fd5b505050506040513d601f19601f8201168201806040525081019061091c91906124aa565b1161095c576040517f08c379a000000000000000000000000000000000000000000000000000000000815260040161095390612549565b60405180910390fd5b600061096860076112cb565b90506001600a60003373ffffffffffffffffffffffffffffffffffffffff1673ffffffffffffffffffffffffffffffffffffffff16815260200190815260200160002060006101000a81548160ff0219169083151502179055506109cc60076112d9565b6109d682826112ef565b5050565b6109f583838360405180602001604052806000815250610c79565b505050565b6000806002600084815260200190815260200160002060009054906101000a900473ffffffffffffffffffffffffffffffffffffffff169050600073ffffffffffffffffffffffffffffffffffffffff168173ffffffffffffffffffffffffffffffffffffffff1603610aa2576040517f08c379a0000000000000000000000000000000000000000000000000000000008152600401610a99906125b5565b60405180910390fd5b80915050919050565b60008073ffffffffffffffffffffffffffffffffffffffff168273ffffffffffffffffffffffffffffffffffffffff1603610b1b576040517f08c379a0000000000000000000000000000000000000000000000000000000008152600401610b1290612647565b60405180910390fd5b600360008373ffffffffffffffffffffffffffffffffffffffff1673ffffffffffffffffffffffffffffffffffffffff168152602001908152602001600020549050919050565b610b6a61130d565b610b74600061138b565b565b600a6020528060005260406000206000915054906101000a900460ff1681565b6000600660009054906101000a900473ffffffffffffffffffffffffffffffffffffffff16905090565b606060018054610bcf906121d6565b80601f0160208091040260200160405190810160405280929190818152602001828054610bfb906121d6565b8015610c485780601f10610c1d57610100808354040283529160200191610c48565b820191906000526020600020905b815481529060010190602001808311610c2b57829003601f168201915b5050505050905090565b610c64610c5d610f0f565b8383611451565b5050565b6000610c7460076112cb565b905090565b610c8a610c84610f0f565b83610fd0565b610cc9576040517f08c379a0000000000000000000000000000000000000000000000000000000008152600401610cc09061239d565b60405180910390fd5b610cd5848484846115bd565b50505050565b6060610ce682610ec4565b6000610cf0611619565b90506000815111610d105760405180602001604052806000815250610d3b565b80610d1a84611639565b604051602001610d2b9291906126a3565b6040516020818303038152906040525b915050919050565b6000600560008473ffffffffffffffffffffffffffffffffffffffff1673ffffffffffffffffffffffffffffffffffffffff16815260200190815260200160002060008373ffffffffffffffffffffffffffffffffffffffff1673ffffffffffffffffffffffffffffffffffffffff16815260200190815260200160002060009054906101000a900460ff16905092915050565b610ddf61130d565b600073ffffffffffffffffffffffffffffffffffffffff168173ffffffffffffffffffffffffffffffffffffffff1603610e4e576040517f08c379a0000000000000000000000000000000000000000000000000000000008152600401610e4590612739565b60405180910390fd5b610e578161138b565b50565b60007f01ffc9a7000000000000000000000000000000000000000000000000000000007bffffffffffffffffffffffffffffffffffffffffffffffffffffffff1916827bffffffffffffffffffffffffffffffffffffffffffffffffffffffff1916149050919050565b610ecd81611799565b610f0c576040517f08c379a0000000000000000000000000000000000000000000000000000000008152600401610f03906125b5565b60405180910390fd5b50565b600033905090565b816004600083815260200190815260200160002060006101000a81548173ffffffffffffffffffffffffffffffffffffffff021916908373ffffffffffffffffffffffffffffffffffffffff160217905550808273ffffffffffffffffffffffffffffffffffffffff16610f8a836109fa565b73ffffffffffffffffffffffffffffffffffffffff167f8c5be1e5ebec7d5bd14f71427d1e84f3dd0314c0f7b2291e5b200ac8c7c3b92560405160405180910390a45050565b600080610fdc836109fa565b90508073ffffffffffffffffffffffffffffffffffffffff168473ffffffffffffffffffffffffffffffffffffffff16148061101e575061101d8185610d43565b5b8061105c57508373ffffffffffffffffffffffffffffffffffffffff16611044846105ab565b73ffffffffffffffffffffffffffffffffffffffff16145b91505092915050565b8273ffffffffffffffffffffffffffffffffffffffff16611085826109fa565b73ffffffffffffffffffffffffffffffffffffffff16146110db576040517f08c379a00000000000000000000000000000000000000000000000000000000081526004016110d2906127cb565b60405180910390fd5b600073ffffffffffffffffffffffffffffffffffffffff168273ffffffffffffffffffffffffffffffffffffffff160361114a576040517f08c379a00000000000000000000000000000000000000000000000000000000081526004016111419061285d565b60405180910390fd5b611155838383611805565b611160600082610f17565b6001600360008573ffffffffffffffffffffffffffffffffffffffff1673ffffffffffffffffffffffffffffffffffffffff16815260200190815260200160002060008282546111b091906128ac565b925050819055506001600360008473ffffffffffffffffffffffffffffffffffffffff1673ffffffffffffffffffffffffffffffffffffffff168152602001908152602001600020600082825461120791906128e0565b92505081905550816002600083815260200190815260200160002060006101000a81548173ffffffffffffffffffffffffffffffffffffffff021916908373ffffffffffffffffffffffffffffffffffffffff160217905550808273ffffffffffffffffffffffffffffffffffffffff168473ffffffffffffffffffffffffffffffffffffffff167fddf252ad1be2c89b69c2b068fc378daa952ba7f163c4a11628f55a4df523b3ef60405160405180910390a46112c683838361180a565b505050565b600081600001549050919050565b6001816000016000828254019250508190555050565b61130982826040518060200160405280600081525061180f565b5050565b611315610f0f565b73ffffffffffffffffffffffffffffffffffffffff16611333610b96565b73ffffffffffffffffffffffffffffffffffffffff1614611389576040517f08c379a000000000000000000000000000000000000000000000000000000000815260040161138090612960565b60405180910390fd5b565b6000600660009054906101000a900473ffffffffffffffffffffffffffffffffffffffff16905081600660006101000a81548173ffffffffffffffffffffffffffffffffffffffff021916908373ffffffffffffffffffffffffffffffffffffffff1602179055508173ffffffffffffffffffffffffffffffffffffffff168173ffffffffffffffffffffffffffffffffffffffff167f8be0079c531659141344cd1fd0a4f28419497f9722a3daafe3b4186f6b6457e060405160405180910390a35050565b8173ffffffffffffffffffffffffffffffffffffffff168373ffffffffffffffffffffffffffffffffffffffff16036114bf576040517f08c379a00000000000000000000000000000000000000000000000000000000081526004016114b6906129cc565b60405180910390fd5b80600560008573ffffffffffffffffffffffffffffffffffffffff1673ffffffffffffffffffffffffffffffffffffffff16815260200190815260200160002060008473ffffffffffffffffffffffffffffffffffffffff1673ffffffffffffffffffffffffffffffffffffffff16815260200190815260200160002060006101000a81548160ff0219169083151502179055508173ffffffffffffffffffffffffffffffffffffffff168373ffffffffffffffffffffffffffffffffffffffff167f17307eab39ab6107e8899845ad3d59bd9653f200f220920489ca2b5937696c31836040516115b09190611ca1565b60405180910390a3505050565b6115c8848484611065565b6115d48484848461186a565b611613576040517f08c379a000000000000000000000000000000000000000000000000000000000815260040161160a90612a5e565b60405180910390fd5b50505050565b6060604051806080016040528060448152602001612d4260449139905090565b606060008203611680576040518060400160405280600181526020017f30000000000000000000000000000000000000000000000000000000000000008152509050611794565b600082905060005b600082146116b257808061169b90612a7e565b915050600a826116ab9190612af5565b9150611688565b60008167ffffffffffffffff8111156116ce576116cd611fb9565b5b6040519080825280601f01601f1916602001820160405280156117005781602001600182028036833780820191505090505b5090505b6000851461178d5760018261171991906128ac565b9150600a856117289190612b26565b603061173491906128e0565b60f81b81838151811061174a57611749612b57565b5b60200101907effffffffffffffffffffffffffffffffffffffffffffffffffffffffffffff1916908160001a905350600a856117869190612af5565b9450611704565b8093505050505b919050565b60008073ffffffffffffffffffffffffffffffffffffffff166002600084815260200190815260200160002060009054906101000a900473ffffffffffffffffffffffffffffffffffffffff1673ffffffffffffffffffffffffffffffffffffffff1614159050919050565b505050565b505050565b61181983836119f1565b611826600084848461186a565b611865576040517f08c379a000000000000000000000000000000000000000000000000000000000815260040161185c90612a5e565b60405180910390fd5b505050565b600061188b8473ffffffffffffffffffffffffffffffffffffffff16611bca565b156119e4578373ffffffffffffffffffffffffffffffffffffffff1663150b7a026118b4610f0f565b8786866040518563ffffffff1660e01b81526004016118d69493929190612bdb565b6020604051808303816000875af192505050801561191257506040513d601f19601f8201168201806040525081019061190f9190612c3c565b60015b611994573d8060008114611942576040519150601f19603f3d011682016040523d82523d6000602084013e611947565b606091505b50600081510361198c576040517f08c379a000000000000000000000000000000000000000000000000000000000815260040161198390612a5e565b60405180910390fd5b805181602001fd5b63150b7a0260e01b7bffffffffffffffffffffffffffffffffffffffffffffffffffffffff1916817bffffffffffffffffffffffffffffffffffffffffffffffffffffffff1916149150506119e9565b600190505b949350505050565b600073ffffffffffffffffffffffffffffffffffffffff168273ffffffffffffffffffffffffffffffffffffffff1603611a60576040517f08c379a0000000000000000000000000000000000000000000000000000000008152600401611a5790612cb5565b60405180910390fd5b611a6981611799565b15611aa9576040517f08c379a0000000000000000000000000000000000000000000000000000000008152600401611aa090612d21565b60405180910390fd5b611ab560008383611805565b6001600360008473ffffffffffffffffffffffffffffffffffffffff1673ffffffffffffffffffffffffffffffffffffffff1681526020019081526020016000206000828254611b0591906128e0565b92505081905550816002600083815260200190815260200160002060006101000a81548173ffffffffffffffffffffffffffffffffffffffff021916908373ffffffffffffffffffffffffffffffffffffffff160217905550808273ffffffffffffffffffffffffffffffffffffffff16600073ffffffffffffffffffffffffffffffffffffffff167fddf252ad1be2c89b69c2b068fc378daa952ba7f163c4a11628f55a4df523b3ef60405160405180910390a4611bc66000838361180a565b5050565b6000808273ffffffffffffffffffffffffffffffffffffffff163b119050919050565b6000604051905090565b600080fd5b600080fd5b60007fffffffff0000000000000000000000000000000000000000000000000000000082169050919050565b611c3681611c01565b8114611c4157600080fd5b50565b600081359050611c5381611c2d565b92915050565b600060208284031215611c6f57611c6e611bf7565b5b6000611c7d84828501611c44565b91505092915050565b60008115159050919050565b611c9b81611c86565b82525050565b6000602082019050611cb66000830184611c92565b92915050565b600081519050919050565b600082825260208201905092915050565b60005b83811015611cf6578082015181840152602081019050611cdb565b60008484015250505050565b6000601f19601f8301169050919050565b6000611d1e82611cbc565b611d288185611cc7565b9350611d38818560208601611cd8565b611d4181611d02565b840191505092915050565b60006020820190508181036000830152611d668184611d13565b905092915050565b6000819050919050565b611d8181611d6e565b8114611d8c57600080fd5b50565b600081359050611d9e81611d78565b92915050565b600060208284031215611dba57611db9611bf7565b5b6000611dc884828501611d8f565b91505092915050565b600073ffffffffffffffffffffffffffffffffffffffff82169050919050565b6000611dfc82611dd1565b9050919050565b611e0c81611df1565b82525050565b6000602082019050611e276000830184611e03565b92915050565b611e3681611df1565b8114611e4157600080fd5b50565b600081359050611e5381611e2d565b92915050565b60008060408385031215611e7057611e6f611bf7565b5b6000611e7e85828601611e44565b9250506020611e8f85828601611d8f565b9150509250929050565b611ea281611d6e565b82525050565b6000602082019050611ebd6000830184611e99565b92915050565b600080600060608486031215611edc57611edb611bf7565b5b6000611eea86828701611e44565b9350506020611efb86828701611e44565b9250506040611f0c86828701611d8f565b9150509250925092565b600060208284031215611f2c57611f2b611bf7565b5b6000611f3a84828501611e44565b91505092915050565b611f4c81611c86565b8114611f5757600080fd5b50565b600081359050611f6981611f43565b92915050565b60008060408385031215611f8657611f85611bf7565b5b6000611f9485828601611e44565b9250506020611fa585828601611f5a565b9150509250929050565b600080fd5b600080fd5b7f4e487b7100000000000000000000000000000000000000000000000000000000600052604160045260246000fd5b611ff182611d02565b810181811067ffffffffffffffff821117156120105761200f611fb9565b5b80604052505050565b6000612023611bed565b905061202f8282611fe8565b919050565b600067ffffffffffffffff82111561204f5761204e611fb9565b5b61205882611d02565b9050602081019050919050565b82818337600083830152505050565b600061208761208284612034565b612019565b9050828152602081018484840111156120a3576120a2611fb4565b5b6120ae848285612065565b509392505050565b600082601f8301126120cb576120ca611faf565b5b81356120db848260208601612074565b91505092915050565b600080600080608085870312156120fe576120fd611bf7565b5b600061210c87828801611e44565b945050602061211d87828801611e44565b935050604061212e87828801611d8f565b925050606085013567ffffffffffffffff81111561214f5761214e611bfc565b5b61215b878288016120b6565b91505092959194509250565b6000806040838503121561217e5761217d611bf7565b5b600061218c85828601611e44565b925050602061219d85828601611e44565b9150509250929050565b7f4e487b7100000000000000000000000000000000000000000000000000000000600052602260045260246000fd5b600060028204905060018216806121ee57607f821691505b602082108103612201576122006121a7565b5b50919050565b7f4552433732313a20617070726f76616c20746f2063757272656e74206f776e6560008201527f7200000000000000000000000000000000000000000000000000000000000000602082015250565b6000612263602183611cc7565b915061226e82612207565b604082019050919050565b6000602082019050818103600083015261229281612256565b9050919050565b7f4552433732313a20617070726f76652063616c6c6572206973206e6f7420746f60008201527f6b656e206f776e6572206e6f7220617070726f76656420666f7220616c6c0000602082015250565b60006122f5603e83611cc7565b915061230082612299565b604082019050919050565b60006020820190508181036000830152612324816122e8565b9050919050565b7f4552433732313a2063616c6c6572206973206e6f7420746f6b656e206f776e6560008201527f72206e6f7220617070726f766564000000000000000000000000000000000000602082015250565b6000612387602e83611cc7565b91506123928261232b565b604082019050919050565b600060208201905081810360008301526123b68161237a565b9050919050565b7f68617320616c726561647920636c61696d656400000000000000000000000000600082015250565b60006123f3601383611cc7565b91506123fe826123bd565b602082019050919050565b60006020820190508181036000830152612422816123e6565b9050919050565b7f6f7574206f66206d696e74730000000000000000000000000000000000000000600082015250565b600061245f600c83611cc7565b915061246a82612429565b602082019050919050565b6000602082019050818103600083015261248e81612452565b9050919050565b6000815190506124a481611d78565b92915050565b6000602082840312156124c0576124bf611bf7565b5b60006124ce84828501612495565b91505092915050565b7f796f75206861766520746f206861766520612050726f6f664f6656697369742060008201527f746f6b656e000000000000000000000000000000000000000000000000000000602082015250565b6000612533602583611cc7565b915061253e826124d7565b604082019050919050565b6000602082019050818103600083015261256281612526565b9050919050565b7f4552433732313a20696e76616c696420746f6b656e2049440000000000000000600082015250565b600061259f601883611cc7565b91506125aa82612569565b602082019050919050565b600060208201905081810360008301526125ce81612592565b9050919050565b7f4552433732313a2061646472657373207a65726f206973206e6f74206120766160008201527f6c6964206f776e65720000000000000000000000000000000000000000000000602082015250565b6000612631602983611cc7565b915061263c826125d5565b604082019050919050565b6000602082019050818103600083015261266081612624565b9050919050565b600081905092915050565b600061267d82611cbc565b6126878185612667565b9350612697818560208601611cd8565b80840191505092915050565b60006126af8285612672565b91506126bb8284612672565b91508190509392505050565b7f4f776e61626c653a206e6577206f776e657220697320746865207a65726f206160008201527f6464726573730000000000000000000000000000000000000000000000000000602082015250565b6000612723602683611cc7565b915061272e826126c7565b604082019050919050565b6000602082019050818103600083015261275281612716565b9050919050565b7f4552433732313a207472616e736665722066726f6d20696e636f72726563742060008201527f6f776e6572000000000000000000000000000000000000000000000000000000602082015250565b60006127b5602583611cc7565b91506127c082612759565b604082019050919050565b600060208201905081810360008301526127e4816127a8565b9050919050565b7f4552433732313a207472616e7366657220746f20746865207a65726f2061646460008201527f7265737300000000000000000000000000000000000000000000000000000000602082015250565b6000612847602483611cc7565b9150612852826127eb565b604082019050919050565b600060208201905081810360008301526128768161283a565b9050919050565b7f4e487b7100000000000000000000000000000000000000000000000000000000600052601160045260246000fd5b60006128b782611d6e565b91506128c283611d6e565b92508282039050818111156128da576128d961287d565b5b92915050565b60006128eb82611d6e565b91506128f683611d6e565b925082820190508082111561290e5761290d61287d565b5b92915050565b7f4f776e61626c653a2063616c6c6572206973206e6f7420746865206f776e6572600082015250565b600061294a602083611cc7565b915061295582612914565b602082019050919050565b600060208201905081810360008301526129798161293d565b9050919050565b7f4552433732313a20617070726f766520746f2063616c6c657200000000000000600082015250565b60006129b6601983611cc7565b91506129c182612980565b602082019050919050565b600060208201905081810360008301526129e5816129a9565b9050919050565b7f4552433732313a207472616e7366657220746f206e6f6e20455243373231526560008201527f63656976657220696d706c656d656e7465720000000000000000000000000000602082015250565b6000612a48603283611cc7565b9150612a53826129ec565b604082019050919050565b60006020820190508181036000830152612a7781612a3b565b9050919050565b6000612a8982611d6e565b91507fffffffffffffffffffffffffffffffffffffffffffffffffffffffffffffffff8203612abb57612aba61287d565b5b600182019050919050565b7f4e487b7100000000000000000000000000000000000000000000000000000000600052601260045260246000fd5b6000612b0082611d6e565b9150612b0b83611d6e565b925082612b1b57612b1a612ac6565b5b828204905092915050565b6000612b3182611d6e565b9150612b3c83611d6e565b925082612b4c57612b4b612ac6565b5b828206905092915050565b7f4e487b7100000000000000000000000000000000000000000000000000000000600052603260045260246000fd5b600081519050919050565b600082825260208201905092915050565b6000612bad82612b86565b612bb78185612b91565b9350612bc7818560208601611cd8565b612bd081611d02565b840191505092915050565b6000608082019050612bf06000830187611e03565b612bfd6020830186611e03565b612c0a6040830185611e99565b8181036060830152612c1c8184612ba2565b905095945050505050565b600081519050612c3681611c2d565b92915050565b600060208284031215612c5257612c51611bf7565b5b6000612c6084828501612c27565b91505092915050565b7f4552433732313a206d696e7420746f20746865207a65726f2061646472657373600082015250565b6000612c9f602083611cc7565b9150612caa82612c69565b602082019050919050565b60006020820190508181036000830152612cce81612c92565b9050919050565b7f4552433732313a20746f6b656e20616c7265616479206d696e74656400000000600082015250565b6000612d0b601c83611cc7565b9150612d1682612cd5565b602082019050919050565b60006020820190508181036000830152612d3a81612cfe565b905091905056fe68747470733a2f2f697066732e696f2f697066732f516d5a5934466e6b646776396647557a356b475944504268595634544a7771565359397a66554c63453531654e312fa26469706673582212203b2c3e3c895f0533c049275eb10d4b3c2ca5c7c3b12e8d1c192fd31da4b0cbd964736f6c63430008110033",
  "linkReferences": {},
  "deployedLinkReferences": {}
}